{
  "contractName": "BettingContract",
  "abi": [
    {
      "inputs": [
        {
          "internalType": "string[]",
          "name": "_teams",
          "type": "string[]"
        }
      ],
      "stateMutability": "payable",
      "type": "constructor"
    },
    {
      "anonymous": false,
      "inputs": [
        {
          "indexed": false,
          "internalType": "address",
          "name": "addy",
          "type": "address"
        },
        {
          "indexed": false,
          "internalType": "uint256",
          "name": "amount",
          "type": "uint256"
        },
        {
          "components": [
            {
              "internalType": "string",
              "name": "name",
              "type": "string"
            },
            {
              "internalType": "uint256",
              "name": "totalBetAmount",
              "type": "uint256"
            }
          ],
          "indexed": false,
          "internalType": "struct BettingContract.Team",
          "name": "teamBet",
          "type": "tuple"
        }
      ],
      "name": "NewBet",
      "type": "event"
    },
    {
      "anonymous": false,
      "inputs": [
        {
          "indexed": true,
          "internalType": "address",
          "name": "previousOwner",
          "type": "address"
        },
        {
          "indexed": true,
          "internalType": "address",
          "name": "newOwner",
          "type": "address"
        }
      ],
      "name": "OwnershipTransferred",
      "type": "event"
    },
    {
      "inputs": [
        {
          "internalType": "address",
          "name": "",
          "type": "address"
        }
      ],
      "name": "bets",
      "outputs": [
        {
          "internalType": "string",
          "name": "name",
          "type": "string"
        },
        {
          "internalType": "uint256",
          "name": "amount",
          "type": "uint256"
        },
        {
          "internalType": "uint256",
          "name": "totalWon",
          "type": "uint256"
        },
        {
          "components": [
            {
              "internalType": "string",
              "name": "name",
              "type": "string"
            },
            {
              "internalType": "uint256",
              "name": "totalBetAmount",
              "type": "uint256"
            }
          ],
          "internalType": "struct BettingContract.Team",
          "name": "teamBet",
          "type": "tuple"
        }
      ],
      "stateMutability": "view",
      "type": "function"
    },
    {
      "inputs": [
        {
          "internalType": "address",
          "name": "",
          "type": "address"
        }
      ],
      "name": "numBetsAddress",
      "outputs": [
        {
          "internalType": "uint256",
          "name": "",
          "type": "uint256"
        }
      ],
      "stateMutability": "view",
      "type": "function"
    },
    {
      "inputs": [],
      "name": "owner",
      "outputs": [
        {
          "internalType": "address",
          "name": "",
          "type": "address"
        }
      ],
      "stateMutability": "view",
      "type": "function"
    },
    {
      "inputs": [],
      "name": "renounceOwnership",
      "outputs": [],
      "stateMutability": "nonpayable",
      "type": "function"
    },
    {
      "inputs": [],
      "name": "state",
      "outputs": [
        {
          "internalType": "enum BettingContract.State",
          "name": "",
          "type": "uint8"
        }
      ],
      "stateMutability": "view",
      "type": "function"
    },
    {
      "inputs": [
        {
          "internalType": "uint256",
          "name": "",
          "type": "uint256"
        }
      ],
      "name": "teams",
      "outputs": [
        {
          "internalType": "string",
          "name": "name",
          "type": "string"
        },
        {
          "internalType": "uint256",
          "name": "totalBetAmount",
          "type": "uint256"
        }
      ],
      "stateMutability": "view",
      "type": "function"
    },
    {
      "inputs": [],
      "name": "totalBetMoney",
      "outputs": [
        {
          "internalType": "uint256",
          "name": "",
          "type": "uint256"
        }
      ],
      "stateMutability": "view",
      "type": "function"
    },
    {
      "inputs": [
        {
          "internalType": "address",
          "name": "newOwner",
          "type": "address"
        }
      ],
      "name": "transferOwnership",
      "outputs": [],
      "stateMutability": "nonpayable",
      "type": "function"
    },
    {
      "inputs": [],
      "name": "winnerId",
      "outputs": [
        {
          "internalType": "uint256",
          "name": "",
          "type": "uint256"
        }
      ],
      "stateMutability": "view",
      "type": "function"
    },
    {
      "inputs": [
        {
          "internalType": "string",
          "name": "_name",
          "type": "string"
        }
      ],
      "name": "createTeam",
      "outputs": [],
      "stateMutability": "nonpayable",
      "type": "function"
    },
    {
      "inputs": [
        {
          "internalType": "uint256",
          "name": "_teamId",
          "type": "uint256"
        }
      ],
      "name": "getTotalBetAmount",
      "outputs": [
        {
          "internalType": "uint256",
          "name": "",
          "type": "uint256"
        }
      ],
      "stateMutability": "view",
      "type": "function"
    },
    {
      "inputs": [
        {
          "internalType": "uint256",
          "name": "_teamId",
          "type": "uint256"
        }
      ],
      "name": "createBet",
      "outputs": [],
      "stateMutability": "payable",
      "type": "function"
    },
    {
      "inputs": [
        {
          "internalType": "uint256",
          "name": "_teamId",
          "type": "uint256"
        }
      ],
      "name": "reportWinner",
      "outputs": [],
      "stateMutability": "payable",
      "type": "function"
    },
    {
      "inputs": [],
      "name": "pauseForNewBets",
      "outputs": [],
      "stateMutability": "nonpayable",
      "type": "function"
    },
    {
      "inputs": [],
      "name": "withdrawnRemaining",
      "outputs": [],
      "stateMutability": "nonpayable",
      "type": "function"
    },
    {
      "inputs": [],
      "name": "cancel",
      "outputs": [],
      "stateMutability": "nonpayable",
      "type": "function"
    },
    {
      "inputs": [],
      "name": "recoverFunds",
      "outputs": [],
      "stateMutability": "nonpayable",
      "type": "function"
    },
    {
      "inputs": [],
      "name": "claimWinnings",
      "outputs": [],
      "stateMutability": "nonpayable",
      "type": "function"
    },
    {
      "inputs": [
        {
          "internalType": "address",
          "name": "tokenAddress",
          "type": "address"
        },
        {
          "internalType": "uint256",
          "name": "tokenAmount",
          "type": "uint256"
        }
      ],
      "name": "recoverERC20",
      "outputs": [],
      "stateMutability": "nonpayable",
      "type": "function"
    }
  ],
  "bytecode": "0x6080604052600060045560405162001c3d38038062001c3d8339810160408190526200002b91620002c7565b6200003633620000ab565b60018055600380546001600160a81b031916336101000260ff191617905560005b8151811015620000a3576200008e8282815181106200007a576200007a62000429565b6020026020010151620000fb60201b60201c565b806200009a816200043f565b91505062000057565b5050620004a6565b600080546001600160a01b038381166001600160a01b0319831681178455604051919092169283917f8be0079c531659141344cd1fd0a4f28419497f9722a3daafe3b4186f6b6457e09190a35050565b60006003805460ff169081111562000117576200011762000413565b14620001695760405162461bcd60e51b815260206004820152601e60248201527f424245543a2042657473206e6f74206c6f6e6765722061636365707465640000604482015260640160405180910390fd5b6040805180820190915281815260006020808301829052600280546001810182559281905283518051939091027f405787fa12a823e0f2b7631cc41b3ba8828b3321ca811111fa75cd3aa3bb5ace0192620001c89284920190620001d8565b5060208201518160010155505050565b828054620001e69062000469565b90600052602060002090601f0160209004810192826200020a576000855562000255565b82601f106200022557805160ff191683800117855562000255565b8280016001018555821562000255579182015b828111156200025557825182559160200191906001019062000238565b506200026392915062000267565b5090565b5b8082111562000263576000815560010162000268565b634e487b7160e01b600052604160045260246000fd5b604051601f8201601f191681016001600160401b0381118282101715620002bf57620002bf6200027e565b604052919050565b60006020808385031215620002db57600080fd5b82516001600160401b0380821115620002f357600080fd5b8185019150601f86818401126200030957600080fd5b8251828111156200031e576200031e6200027e565b8060051b6200032f86820162000294565b918252848101860191868101908a8411156200034a57600080fd5b87870192505b8383101562000405578251868111156200036a5760008081fd5b8701603f81018c136200037d5760008081fd5b88810151878111156200039457620003946200027e565b620003a7818801601f19168b0162000294565b81815260408e81848601011115620003bf5760008081fd5b60005b83811015620003df578481018201518382018e01528c01620003c2565b83811115620003f15760008d85850101525b505084525050918701919087019062000350565b9a9950505050505050505050565b634e487b7160e01b600052602160045260246000fd5b634e487b7160e01b600052603260045260246000fd5b60006000198214156200046257634e487b7160e01b600052601160045260246000fd5b5060010190565b600181811c908216806200047e57607f821691505b60208210811415620004a057634e487b7160e01b600052602260045260246000fd5b50919050565b61178780620004b66000396000f3fe6080604052600436106101145760003560e01c80638da5cb5b116100a0578063b79550be11610064578063b79550be146102d1578063c19d93fb146102e6578063c8e405151461030d578063ea8a1af014610323578063f2fde38b1461033857600080fd5b80638da5cb5b1461024b57806391e0d59314610273578063972fa53f14610289578063ac793a60146102a9578063b401faf1146102bc57600080fd5b8063538b7be4116100e7578063538b7be4146101bc578063715018a6146101d1578063808408ad146101e65780638980f11f146101fb57806389a78f1a1461021b57600080fd5b80630c4ca31f146101195780630e89da561461012e5780633ed2b77a1461016157806350de367a1461018f575b600080fd5b61012c6101273660046112a1565b610358565b005b34801561013a57600080fd5b5061014e6101493660046112a1565b6103b0565b6040519081526020015b60405180910390f35b34801561016d57600080fd5b5061018161017c3660046112a1565b6103de565b604051610158929190611307565b34801561019b57600080fd5b5061014e6101aa366004611345565b60076020526000908152604090205481565b3480156101c857600080fd5b5061012c61049a565b3480156101dd57600080fd5b5061012c610535565b3480156101f257600080fd5b5061012c610549565b34801561020757600080fd5b5061012c610216366004611367565b6105cd565b34801561022757600080fd5b5061023b610236366004611345565b61066c565b6040516101589493929190611391565b34801561025757600080fd5b506000546040516001600160a01b039091168152602001610158565b34801561027f57600080fd5b5061014e60055481565b34801561029557600080fd5b5061012c6102a43660046113fb565b6107c2565b61012c6102b73660046112a1565b610895565b3480156102c857600080fd5b5061012c610cf3565b3480156102dd57600080fd5b5061012c610f3f565b3480156102f257600080fd5b506003546103009060ff1681565b60405161015891906114c2565b34801561031957600080fd5b5061014e60045481565b34801561032f57600080fd5b5061012c61103c565b34801561034457600080fd5b5061012c610353366004611345565b61108e565b610360611104565b60016003805460ff1690811115610379576103796114ac565b1461039f5760405162461bcd60e51b8152600401610396906114ea565b60405180910390fd5b6005556003805460ff191681179055565b6000600282815481106103c5576103c5611534565b9060005260206000209060020201600101549050919050565b600281815481106103ee57600080fd5b90600052602060002090600202016000915090508060000180546104119061154a565b80601f016020809104026020016040519081016040528092919081815260200182805461043d9061154a565b801561048a5780601f1061045f5761010080835404028352916020019161048a565b820191906000526020600020905b81548152906001019060200180831161046d57829003601f168201915b5050505050908060010154905082565b6104a2611104565b6003805460ff16818111156104b9576104b96114ac565b146105065760405162461bcd60e51b815260206004820152601a60248201527f424245543a20426574206e6f74207965742065786563757465640000000000006044820152606401610396565b60405133904780156108fc02916000818181858888f19350505050158015610532573d6000803e3d6000fd5b50565b61053d611104565b610547600061115e565b565b610551611104565b60006003805460ff169081111561056a5761056a6114ac565b146105b75760405162461bcd60e51b815260206004820152601f60248201527f424245543a2042657473206e6f7420696e20696e697469616c207374617465006044820152606401610396565b600380546001919060ff191682805b0217905550565b6105d5611104565b816001600160a01b031663a9059cbb6105f66000546001600160a01b031690565b6040516001600160e01b031960e084901b1681526001600160a01b039091166004820152602481018490526044016020604051808303816000875af1158015610643573d6000803e3d6000fd5b505050506040513d601f19601f820116820180604052508101906106679190611585565b505050565b6006602052600090815260409020805481906106879061154a565b80601f01602080910402602001604051908101604052809291908181526020018280546106b39061154a565b80156107005780601f106106d557610100808354040283529160200191610700565b820191906000526020600020905b8154815290600101906020018083116106e357829003601f168201915b505050505090806001015490806002015490806003016040518060400160405290816000820180546107319061154a565b80601f016020809104026020016040519081016040528092919081815260200182805461075d9061154a565b80156107aa5780601f1061077f576101008083540402835291602001916107aa565b820191906000526020600020905b81548152906001019060200180831161078d57829003601f168201915b50505050508152602001600182015481525050905084565b60006003805460ff16908111156107db576107db6114ac565b146108285760405162461bcd60e51b815260206004820152601e60248201527f424245543a2042657473206e6f74206c6f6e67657220616363657074656400006044820152606401610396565b6040805180820190915281815260006020808301829052600280546001810182559281905283518051939091027f405787fa12a823e0f2b7631cc41b3ba8828b3321ca811111fa75cd3aa3bb5ace01926108859284920190611208565b5060208201518160010155505050565b61089d6111ae565b60006003805460ff16908111156108b6576108b66114ac565b146109035760405162461bcd60e51b815260206004820152601e60248201527f424245543a2042657473206e6f74206c6f6e67657220616363657074656400006044820152606401610396565b60035461010090046001600160a01b03163314156109635760405162461bcd60e51b815260206004820152601c60248201527f424245543a204f776e65722063616e2774206d616b65206120626574000000006044820152606401610396565b33600090815260076020526040902054156109cc5760405162461bcd60e51b815260206004820152602360248201527f424245543a20596f75206861766520616c726561647920706c6163656420612060448201526218995d60ea1b6064820152608401610396565b655af3107a40003411610a215760405162461bcd60e51b815260206004820152601760248201527f424245543a204265742062656c6f77206d696e696d756d0000000000000000006044820152606401610396565b604051806080016040528060028381548110610a3f57610a3f611534565b90600052602060002090600202016000018054610a5b9061154a565b80601f0160208091040260200160405190810160405280929190818152602001828054610a879061154a565b8015610ad45780601f10610aa957610100808354040283529160200191610ad4565b820191906000526020600020905b815481529060010190602001808311610ab757829003601f168201915b505050505081526020013481526020016000815260200160028381548110610afe57610afe611534565b9060005260206000209060020201604051806040016040529081600082018054610b279061154a565b80601f0160208091040260200160405190810160405280929190818152602001828054610b539061154a565b8015610ba05780601f10610b7557610100808354040283529160200191610ba0565b820191906000526020600020905b815481529060010190602001808311610b8357829003601f168201915b50505091835250506001919091015460209182015291523360009081526006825260409020825180519192610bda92849290910190611208565b5060208281015160018301556040830151600283015560608301518051805191926003850192610c0d9284920190611208565b506020820151816001015550509050503460028281548110610c3157610c31611534565b90600052602060002090600202016001016000828254610c5191906115bd565b9091555050336000908152600760205260408120805491610c71836115d5565b91905055503460046000828254610c8891906115bd565b925050819055507f948a46eba9469fc822b082631d32f2456ea94a35179d32230095b6f34fb341cb333460028481548110610cc557610cc5611534565b9060005260206000209060020201604051610ce2939291906115f0565b60405180910390a161053260018055565b610cfb6111ae565b6003805460ff1681811115610d1257610d126114ac565b14610d585760405162461bcd60e51b8152602060048201526016602482015275109091550e8810995d081b9bdd08195e1958dd5d195960521b6044820152606401610396565b33600090815260066020526040902060010154610dad5760405162461bcd60e51b8152602060048201526013602482015272109091550e88139bc818995d081c1b1858d959606a1b6044820152606401610396565b600260055481548110610dc257610dc2611534565b9060005260206000209060020201600001604051602001610de3919061169e565b60408051601f19818403018152828252805160209182012033600090815260068352929092209192610e1992600301910161169e565b604051602081830303815290604052805190602001201415610e9c576000610e426005546103b0565b600454610e4f9190611710565b33600090815260066020526040902060010154610e6c9190611732565b90506103e8610e7d826103ca611732565b610e879190611710565b33600090815260066020526040902060020155505b33600090815260066020526040902060020154610efb5760405162461bcd60e51b815260206004820152601a60248201527f424245543a204e6f2077696e6e696e677320746f20636c61696d0000000000006044820152606401610396565b3360008181526006602052604080822060020154905181156108fc0292818181858888f19350505050158015610f35573d6000803e3d6000fd5b5061054760018055565b610f476111ae565b60026003805460ff1690811115610f6057610f606114ac565b14610fad5760405162461bcd60e51b815260206004820152601760248201527f424245543a20426574206e6f742063616e63656c6c65640000000000000000006044820152606401610396565b336000908152600660205260409020600101546110025760405162461bcd60e51b8152602060048201526013602482015272109091550e88139bc818995d081c1b1858d959606a1b6044820152606401610396565b3360008181526006602052604080822060010154905181156108fc0292818181858888f19350505050158015610f35573d6000803e3d6000fd5b611044611104565b60006003805460ff169081111561105d5761105d6114ac565b1461107a5760405162461bcd60e51b8152600401610396906114ea565b600380546002919060ff19166001836105c6565b611096611104565b6001600160a01b0381166110fb5760405162461bcd60e51b815260206004820152602660248201527f4f776e61626c653a206e6577206f776e657220697320746865207a65726f206160448201526564647265737360d01b6064820152608401610396565b6105328161115e565b6000546001600160a01b031633146105475760405162461bcd60e51b815260206004820181905260248201527f4f776e61626c653a2063616c6c6572206973206e6f7420746865206f776e65726044820152606401610396565b600080546001600160a01b038381166001600160a01b0319831681178455604051919092169283917f8be0079c531659141344cd1fd0a4f28419497f9722a3daafe3b4186f6b6457e09190a35050565b600260015414156112015760405162461bcd60e51b815260206004820152601f60248201527f5265656e7472616e637947756172643a207265656e7472616e742063616c6c006044820152606401610396565b6002600155565b8280546112149061154a565b90600052602060002090601f016020900481019282611236576000855561127c565b82601f1061124f57805160ff191683800117855561127c565b8280016001018555821561127c579182015b8281111561127c578251825591602001919060010190611261565b5061128892915061128c565b5090565b5b80821115611288576000815560010161128d565b6000602082840312156112b357600080fd5b5035919050565b6000815180845260005b818110156112e0576020818501810151868301820152016112c4565b818111156112f2576000602083870101525b50601f01601f19169290920160200192915050565b60408152600061131a60408301856112ba565b90508260208301529392505050565b80356001600160a01b038116811461134057600080fd5b919050565b60006020828403121561135757600080fd5b61136082611329565b9392505050565b6000806040838503121561137a57600080fd5b61138383611329565b946020939093013593505050565b6080815260006113a460808301876112ba565b85602084015284604084015282810360608401528351604082526113cb60408301826112ba565b905060208501516020830152809250505095945050505050565b634e487b7160e01b600052604160045260246000fd5b60006020828403121561140d57600080fd5b813567ffffffffffffffff8082111561142557600080fd5b818401915084601f83011261143957600080fd5b81358181111561144b5761144b6113e5565b604051601f8201601f19908116603f01168101908382118183101715611473576114736113e5565b8160405282815287602084870101111561148c57600080fd5b826020860160208301376000928101602001929092525095945050505050565b634e487b7160e01b600052602160045260246000fd5b60208101600483106114e457634e487b7160e01b600052602160045260246000fd5b91905290565b6020808252602a908201527f424245543a2042657420616c7265616479206469737472696275746564206f726040820152690818d85b98d95b1b195960b21b606082015260800190565b634e487b7160e01b600052603260045260246000fd5b600181811c9082168061155e57607f821691505b6020821081141561157f57634e487b7160e01b600052602260045260246000fd5b50919050565b60006020828403121561159757600080fd5b8151801515811461136057600080fd5b634e487b7160e01b600052601160045260246000fd5b600082198211156115d0576115d06115a7565b500190565b60006000198214156115e9576115e96115a7565b5060010190565b60018060a01b038416815260006020848184015260606040840152604060608401526000845461161f8161154a565b8060a087015260c0600180841660008114611641576001811461165557611683565b60ff1985168984015260e089019550611683565b896000528660002060005b8581101561167b5781548b8201860152908301908801611660565b8a0184019650505b50808901546080890152505050508092505050949350505050565b60008083546116ac8161154a565b600182811680156116c457600181146116d557611704565b60ff19841687528287019450611704565b8760005260208060002060005b858110156116fb5781548a8201529084019082016116e2565b50505082870194505b50929695505050505050565b60008261172d57634e487b7160e01b600052601260045260246000fd5b500490565b600081600019048311821515161561174c5761174c6115a7565b50029056fea26469706673582212208e7d895f30754fef961e3815bae0134bdf93cc5695bcd77659c5e4c35013512164736f6c634300080b0033",
  "immutableReferences": {},
  "source": "// SPDX-License-Identifier: MIT\r\n\r\npragma solidity 0.8.11;\r\n\r\nimport \"@openzeppelin/contracts/access/Ownable.sol\";\r\nimport \"@openzeppelin/contracts/security/ReentrancyGuard.sol\";\r\nimport \"@openzeppelin/contracts/token/ERC20/IERC20.sol\";\r\n\r\ncontract BettingContract is Ownable, ReentrancyGuard {\r\n    event NewBet(address addy, uint amount, Team teamBet);\r\n\r\n    struct Bet {\r\n        string name;\r\n        uint256 amount;\r\n        uint256 totalWon;\r\n        Team teamBet;\r\n    }\r\n\r\n    struct Team {\r\n        string name;\r\n        uint256 totalBetAmount;\r\n    }\r\n\r\n    // Bet[] public bets;\r\n    Team[] public teams;\r\n\r\n    enum State {\r\n        started,\r\n        closed,\r\n        cancelled,\r\n        executed\r\n    }\r\n\r\n    State public state;\r\n    address payable conOwner;\r\n    uint public totalBetMoney = 0;\r\n    uint public winnerId;\r\n\r\n    mapping(address => Bet) public bets;\r\n    mapping(address => uint) public numBetsAddress;\r\n\r\n    constructor(string[] memory _teams) payable {\r\n        conOwner = payable(msg.sender);\r\n        state = State.started;\r\n        for (uint i = 0; i < _teams.length; i++) {\r\n            createTeam(_teams[i]);\r\n        }\r\n    }\r\n\r\n    function createTeam(string memory _name) public {\r\n        require(state == State.started, \"BBET: Bets not longer accepted\");\r\n        teams.push(Team(_name, 0));\r\n    }\r\n\r\n    function getTotalBetAmount(uint _teamId) public view returns (uint) {\r\n        return teams[_teamId].totalBetAmount;\r\n    }\r\n\r\n    function createBet(uint _teamId) external payable nonReentrant {\r\n        require(state == State.started, \"BBET: Bets not longer accepted\");\r\n        require(msg.sender != conOwner, \"BBET: Owner can't make a bet\");\r\n        require(\r\n            numBetsAddress[msg.sender] == 0,\r\n            \"BBET: You have already placed a bet\"\r\n        );\r\n        require(msg.value > 0.0001 ether, \"BBET: Bet below minimum\");\r\n\r\n        bets[msg.sender] = Bet(\r\n            teams[_teamId].name,\r\n            msg.value,\r\n            0,\r\n            teams[_teamId]\r\n        );\r\n        teams[_teamId].totalBetAmount += msg.value;\r\n        numBetsAddress[msg.sender]++;\r\n        totalBetMoney += msg.value;\r\n\r\n        emit NewBet(msg.sender, msg.value, teams[_teamId]);\r\n    }\r\n\r\n    function reportWinner(uint _teamId) public payable onlyOwner {\r\n        require(\r\n            state == State.closed,\r\n            \"BBET: Bet already distributed or cancelled\"\r\n        );\r\n        winnerId = _teamId;\r\n        state = State.executed;\r\n    }\r\n\r\n    function pauseForNewBets() public onlyOwner {\r\n        require(state == State.started, \"BBET: Bets not in initial state\");\r\n        state = State.closed;\r\n    }\r\n\r\n    function withdrawnRemaining() external onlyOwner {\r\n        require(state == State.executed, \"BBET: Bet not yet executed\");\r\n        payable(msg.sender).transfer(address(this).balance);\r\n    }\r\n\r\n    function cancel() external onlyOwner {\r\n        require(\r\n            state == State.started,\r\n            \"BBET: Bet already distributed or cancelled\"\r\n        );\r\n        state = State.cancelled;\r\n    }\r\n\r\n    function recoverFunds() external nonReentrant {\r\n        require(state == State.cancelled, \"BBET: Bet not cancelled\");\r\n        require(bets[msg.sender].amount > 0, \"BBET: No bet placed\");\r\n        payable(msg.sender).transfer(bets[msg.sender].amount);\r\n    }\r\n\r\n    function claimWinnings() external nonReentrant {\r\n        require(state == State.executed, \"BBET: Bet not executed\");\r\n        require(bets[msg.sender].amount > 0, \"BBET: No bet placed\");\r\n\r\n        if (\r\n            keccak256(abi.encodePacked((bets[msg.sender].teamBet.name))) ==\r\n            keccak256(abi.encodePacked(teams[winnerId].name))\r\n        ) {\r\n            uint div = (bets[msg.sender].amount *\r\n                (totalBetMoney / getTotalBetAmount(winnerId)));\r\n            bets[msg.sender].totalWon = (div * 970) / 1000;\r\n        }\r\n\r\n        require(bets[msg.sender].totalWon > 0, \"BBET: No winnings to claim\");\r\n        payable(msg.sender).transfer(bets[msg.sender].totalWon);\r\n    }\r\n\r\n    function recoverERC20(\r\n        address tokenAddress,\r\n        uint256 tokenAmount\r\n    ) public virtual onlyOwner {\r\n        IERC20(tokenAddress).transfer(owner(), tokenAmount);\r\n    }\r\n}\r\n",
  "sourcePath": "C:\\Users\\pc\\blockbetting\\contracts\\BettingContract.sol",
  "compiler": {
    "name": "solc",
    "version": "0.8.11+commit.d7f03943.Emscripten.clang"
  },
  "schemaVersion": "3.4.10",
  "updatedAt": "2022-11-26T19:33:54.348Z",
  "networkType": "ethereum",
  "devdoc": {
    "kind": "dev",
    "methods": {
      "owner()": {
        "details": "Returns the address of the current owner."
      },
      "renounceOwnership()": {
        "details": "Leaves the contract without owner. It will not be possible to call `onlyOwner` functions anymore. Can only be called by the current owner. NOTE: Renouncing ownership will leave the contract without an owner, thereby removing any functionality that is only available to the owner."
      },
      "transferOwnership(address)": {
        "details": "Transfers ownership of the contract to a new account (`newOwner`). Can only be called by the current owner."
      }
    },
    "version": 1
  },
  "userdoc": {
    "kind": "user",
    "methods": {},
    "version": 1
  }
}